:100000000C9446000C9465000C9465000C94ED0073
:100010000C9465000C9465000C9465000C946500CC
:100020000C9465000C9465000C9465000C946500BC
:100030000C9465000C9465000C9465000C946500AC
:100040000C9465000C9465000C9465000C9465009C
:100050000C9465000C9465000C9465000C9465008C
:100060000C9465000C9465000C9465000C9465007C
:100070000C9465000C9465000C9465000C9465006C
:100080000C9465000C9465000C94650011241FBE4F
:10009000CFEFD0E4DEBFCDBF11E0A0E0B1E0ECECEB
:1000A000F6E000E00BBF02C007900D92A434B10748
:1000B000D9F711E0A4E4B1E001C01D92A138B10765
:1000C000E1F70E9422010C9464030C940000FF925B
:1000D0000F931F938B019C01F42E82E08093C0004C
:1000E00083E0000F111F221F331F8A95D1F760E0B4
:1000F00074E284EF90E0A90198010E94420321502C
:100100002093C400F794FF24F79488E1F82AF09232
:10011000C1001F910F91FF900895FF920F931F93BD
:100120008B019C01F42E82E08093C80093E0000FC5
:10013000111F221F331F9A95D1F760E074E284EFFC
:1001400090E0A90198010E94420321502093CC0025
:10015000F794FF24F79488E1F82AF092C9001F91E0
:100160000F91FF900895982F8091C00085FFFCCFDC
:100170009093C60080E090E00895982F8091C80089
:1001800085FFFCCF9093CE0080E090E008958091B1
:10019000C00087FFFCCF8091C00084FF02C08EEFBB
:1001A00008958091C00083FF02C08FEF0895809171
:1001B000C60008958091C80087FFFCCF8091C800D9
:1001C00084FF02C08EEF08958091C80083FF02C0B3
:1001D0008FEF08958091CE0008951F920F920FB671
:1001E0000F920BB60F9211242F933F938F939F93EF
:1001F000EF93FF9380ED97E020E931E0F90131972B
:10020000F1F70197D9F785B1847085B985B1882355
:1002100019F081E080938001FF91EF919F918F9180
:100220003F912F910F900BBE0F900FBE0F901F901C
:10023000189514B884E085B98DBB80E3809369007C
:1002400078940895CF92DF92EF92FF920F931F93CD
:10025000DF93CF9300D0CDB7DEB780E187B980E1DF
:1002600097E220E931E0F9013197F1F70197D9F7E9
:100270001A8219820E94BF010E9438030E94A301C2
:100280000E948D0214B884E085B98DBB80E3809311
:100290006900789480E395E720E931E0F90131972E
:1002A000F1F70197D9F7109280016E010894C11CF3
:1002B000D11C80EAE82E8FE0F82E00EE1EE280913D
:1002C00080018823E1F30E946302C6010E94AB0211
:1002D000C7010197F1F70E947801C8010197F1F772
:1002E0000E94DB0210928001EACF0E94B3000895C1
:1002F00081E60E94B3008CE60E94B30085E60E946E
:10030000B30082E70E94B30084E70E94B30008951F
:10031000EF92FF920F931F93CF93DF938C017A019B
:10032000C0E0D0E006C0F80181918F010E94B300C7
:100330002196CE15DF05BCF3DF91CF911F910F9170
:10034000FF90EF900895CF93DF93C4E0D1E08991BF
:100350000E94B30081E0CF30D807C9F7DF91CF9179
:100360000895CF93DF93C0E0D1E089910E94B3005C
:1003700081E0C430D807C9F7DF91CF91089540E0FC
:1003800060E072EC81E090E00E9467000895CF92F7
:10039000DF92EF92FF920F931F93CF93DF936C0145
:1003A0008B01C7E3D1E089910E94BD0081E0CF338A
:1003B000D807C9F79FE3E92E91E0F92E812F9927FD
:1003C00087FD9A950E94BD00802F0E94BD0080E0AD
:1003D0000E94BD0080E00E94BD0080E00E94BD0040
:1003E00080E20E94BD0080E00E94BD008AE00E9481
:1003F000BD00C4E4D1E00E94DA008993F701919135
:100400007F01891719F020E030E01BC0F1E0C9340A
:10041000DF0789F7C0E0D0E00E94DA00F60181939F
:100420006F012196C032D105B9F70E94DA000E940F
:10043000DA000E94DA000E94DA000E94DA0021E06D
:1004400030E0C901DF91CF911F910F91FF90EF90A4
:10045000DF90CF900895AF92BF92CF92DF92EF924C
:10046000FF920F931F93CF93DF938C016B017A015F
:100470005901C0E0D0E006C0F80181918F010E94CF
:10048000BD002196CE15DF05BCF302C08091CE00E1
:100490008091C80087FDFACFC0E0D0E006C00E947E
:1004A000DA00F60181936F012196CA15DB05BCF3D2
:1004B000DF91CF911F910F91FF90EF90DF90CF9040
:1004C000BF90AF900895CF93DF9380E188B980E229
:1004D00093E020E931E0F9013197F1F70197D9F77D
:1004E000C8E2D1E018B825E030E045E050E064E42F
:1004F00071E083E291E00E942B02E4E4F1E091914B
:100500008991981711F080E005C081E0E934F8077F
:10051000B1F781E0DF91CF910895CF93DF93CFE1E1
:10052000D1E024E030E044E050E064E471E08BE1AD
:1005300091E00E942B02E4E4F1E0919189919817F7
:1005400011F080E005C081E0E834F807B1F781E000
:10055000DF91CF9108950F931F93CF93DF938C0179
:10056000C4E1D1E029E030E045E050E064E471E02E
:100570008FE091E00E942B02E4E4F1E09991808108
:10058000891719F020E030E010C0319681E0EB349B
:10059000F807A1F7218130E0908180E0282B392BEA
:1005A000F8013183208321E030E0C901DF91CF9150
:1005B0001F910F9108958F929F92AF92BF92CF9209
:1005C000DF92EF92FF920F931F93DF93CF93CDB7FC
:1005D000DEB7A2970FB6F894DEBF0FBECDBFCE0137
:1005E00001960E94AB02892B79F1EE24FF2443E0AF
:1005F000842E912C8C0E9D1E32E0A32EB12CAC0EBD
:10060000BD1E22E2C22ED12CCC0EDD1EB701C401CC
:100610000E94C701892BC1F08501F80181810E94E8
:100620007501F8018181893D29F480818F3F11F4A2
:1006300081E00BC00F5F1F4F0C151D0571F780E2A5
:1006400090E0E80EF91EE2CF80E0A2960FB6F89493
:10065000DEBF0FBECDBFCF91DF911F910F91FF90F5
:10066000EF90DF90CF90BF90AF909F908F900895C4
:1006700040E060E076E980E090E00E948D0081E05B
:1006800090E00895A1E21A2EAA1BBB1BFD010DC02C
:10069000AA1FBB1FEE1FFF1FA217B307E407F50732
:1006A00020F0A21BB30BE40BF50B661F771F881F0E
:1006B000991F1A9469F760957095809590959B01A4
:0C06C000AC01BD01CF010895F894FFCFFC
:1006CC004154490D41542B42545352563D310D5611
:1006DC000034010076003400040000560026007639
:1006EC000026005600360100760036000056003613
:1006FC00010376003600005600320C000A0000762A
:04070C0000320000B7
:00000001FF
